:020000020000FC
:047800000C942200C2
:100000000C9422000C944B000C945C000C945E0049
:100040000C945F0000E00AB907B90FEF04B90FEF95
:100050000DBF08E00EBF002704BD05E005BD00E0B0
:1000600005BB01E000936E000FE00093690003E020
:1000700000933D00789411272227332744275527E2
:1000800066277727882799270BE006BD0CE30093A6
:100090003C000C946E0013951A3069F411272395D7
:1000A0002A3049F4222733953A3029F433274395EF
:1000B0004A3009F44427189500001895189593952F
:1000C000943049F49927512F622F732F842F1127D1
:1000D0002227332744270BE006BD18950E947200A3
:1000E0000C946E0055B92C9A0E9487002C9865B923
:1000F0002D9A0E9487002D9875B92E9A0E9487002C
:100100002E9885B92F9A0E9487002F980895A6EA05
:0A011000AA95F1F700000000089521
:00000001FF
