:1000000081C0000074C200009CC000009AC00000C3
:1000100098C0000096C0000094C0000092C000008C
:1000200090C000008EC000008CC000000AC200001A
:1000300088C0000086C0000084C0000082C00000AC
:1000400080C000007EC000007CC000007AC00000BC
:1000500078C0000076C0000074C0000072C00000CC
:1000600070C000006EC000006CC000006AC00000DC
:1000700068C0000066C0000064C0000062C00000EC
:1000800060C000005EC000005CC000005AC00000FC
:1000900058C0000056C0000054C0000052C000000C
:1000A00050C000004EC000004CC000004AC000001C
:1000B00048C0000046C0000044C0000042C000002C
:1000C00040C000003EC000003CC000003AC000003C
:1000D00038C0000036C0000034C0000032C000004C
:1000E00030C00000620263026302630263026302C3
:1000F0004E02500252025402560258025A025C0248
:100100005E02600211241FBECFEFD1E2DEBFCDBF81
:1001100000E00CBF12E0A0E0B2E0EEE2FBE000E0A5
:100120000BBF02C007900D92A233B107D9F722E0AE
:10013000A2E3B2E001C01D92A534B207E1F75FD29D
:10014000F4C45ECF80EF809307018FE080930801B5
:1001500015BE94E09093680080936D00089590918F
:1001600006019F709E3069F09D3031F09B3031F078
:10017000973031F4282F05C0242F03C0262F01C04B
:100180002BEE822F08958FE0809308018091060165
:100190008F708F3008F041C08FE7809308018FE99E
:1001A0009FE00197F1F700C0000021E443E362E320
:1001B00081E3D5DF8B3E71F58FEB809308018FE9EA
:1001C0009FE00197F1F700C0000022E446E365E3F9
:1001D00084E3C5DF8B3EF1F48FED809308018FE956
:1001E0009FE00197F1F700C0000023E449E368E3D2
:1001F00087E3B5DF8B3E71F48FEE809308018FE9C2
:100200009FE00197F1F700C0000024E443E260E3BF
:100210008AE2A5DF8093050208958BEE80930502A4
:100220000895982F907F91BB8A988B9AEFE9FFE011
:100230003197F1F700C000008B98EFE3FCE93197AC
:10024000F1F700C00000F0E18F9FC001112481BBD5
:100250008A988B9A8FE99FE00197F1F700C0000020
:100260008B98EFE3FCE93197F1F700C000000895A7
:100270008FEF80BB82E0D5DF88E2D3DF8EE0D1DF75
:1002800086E0CFDF81E0CDDF80E8CBCF0895982FE7
:10029000907F91BB91B39C6091BBEFE9FFE03197F8
:1002A000F1F700C000008B988A98EFE3FCE93197E2
:1002B000F1F700C00000F0E18F9FC001112481BB65
:1002C00081B38C6081BB8FE99FE00197F1F700C09B
:1002D00000008B988A98EFE3FCE93197F1F700C0B2
:1002E00000000895CF93DF93EC018881882329F0E3
:1002F0002196CDDF89918111FCCFDF91CF910895B7
:1003000081E08FCF089520ED280F605370E0CB017E
:10031000880F991F660F771F660F771F660F771F6D
:10032000860F971F34E6239F800D911D11244053A3
:10033000840F911D9093360280933502893621E017
:100340009207E0F440EA489F9001499F300D112444
:10035000A3E8BDE2DBD30024880F991F001C880F9F
:10036000991F001C892F902D8093040281EC59DF86
:1003700087E092E0B7DF83E854CF089581EC51DF46
:1003800088E192E0AFDF83E84CCF0895809133029B
:10039000833048F040913B0260913C0280913702EB
:1003A000B2DF109233020895CF93C82F80913302A9
:1003B000813089F018F08230A9F01BC0C093370259
:1003C0009FDF81EC2EDF85E292E08CDF83E829DF7E
:1003D0008C2F5DDF11C0C0933C0284E822DF8C2F9C
:1003E00056DF0AC0C0933B0285E81BDF8C2F4FDF2E
:1003F00003C0815080933302809133028F5F8093DA
:100400003302CF91089580E3CFCF089581E3CCCF1D
:10041000089582E3C9CF089583E3C6CF089584E3A6
:10042000C3CF089585E3C0CF089586E3BDCF089577
:1004300087E3BACF089588E3B7CF089589E3B4CFAF
:1004400008951F920F920FB60F9211240BB60F92C0
:100450002F933F934F935F936F937F938F939F93CC
:10046000AF93BF93EF93FF93F8942FEF81EE94E057
:10047000215080409040E1F700C0000084DE8B3EB8
:1004800011F18093060290E0FC01BA97E031F1058A
:10049000D0F48827EE58FF4F8F4F30C3B4DF13C01E
:1004A000B5DF11C0B6DF0FC0B7DF0DC0B8DF0BC0BE
:1004B000B9DF09C0BADF07C0BBDF05C0BCDF03C0BE
:1004C000BDDF01C063DF7894FF91EF91BF91AF91E1
:1004D0009F918F917F916F915F914F913F912F915C
:1004E0000F900BBE0F900FBE0F901F9018951F928C
:1004F0000F920FB60F9211248F93499B0EC081E08B
:100500008093340280913202803A19F410923202C0
:1005100011C08F5F809332020DC01092340280911F
:100520003202811104C080EA8093320203C08150FC
:10053000809332028F910F900FBE0F901F901895ED
:10054000CF92DF92EF92FF92C0904102D090420290
:10055000E0904302F090440220E030E0A901C7019E
:10056000B6011BD18823DCF420E030E040E253E404
:10057000C701B60116D120E030E849E754EC5BD260
:1005800020E030E048EC51E4A4D073D170938B00AC
:1005900060938A0010928900109288002BC020E09E
:1005A00030E0A901C701B60142D21816DCF420E000
:1005B00030E040E253E4C701B601F3D020E030E878
:1005C00049E754E438D220E030E048EC51E481D0EF
:1005D00050D1709389006093880010928B00109224
:1005E0008A0008C0109289001092880010928B0037
:1005F00010928A00FF90EF90DF90CF900895F894CA
:1006000080EE84B91AB887E08BB99CDD31DE8BEAC5
:100610008093800082E0809381001092820010928B
:100620006F00109285001092840010928700109243
:10063000860010928900109288001092B3001092E8
:100640008D0010928C0015BE83E08093690081E0DC
:100650008DBB56DE81ECE5DD85E292E043DE83E88A
:10066000E0DD78946091040270E080E090E02DD1AC
:100670006B017C016091320270E080E090E027D154
:100680009B01AC01C701B60123D09B01AC01609373
:100690003D0270933E0280933F029093400260912E
:1006A0000002709101028091020290910302C3D175
:1006B00060934102709342028093430290934402FC
:1006C0008FE99FE00197F1F700C0000039DFCACF42
:1006D0005058BB27AA270ED070C161D130F066D127
:1006E00020F031F49F3F11F41EF456C10EF4E09552
:1006F000E7FB4CC1E92F72D180F3BA176207730789
:100700008407950718F071F49EF58AC10EF4E09500
:100710000B2EBA2FA02D0B01B90190010C01CA01BB
:10072000A0011124FF27591B99F0593F50F4503E66
:1007300068F11A16F040A22F232F342F4427585F58
:10074000F3CF469537952795A795F0405395C9F770
:100750007EF41F16BA0B620B730B840BBAF0915028
:10076000A1F0FF0FBB1F661F771F881FC2F70EC0C7
:10077000BA0F621F731F841F48F48795779567959A
:10078000B795F7959E3F08F0B3CF9395880F08F083
:100790009927EE0F979587950895D4D008F481E0B6
:1007A00008950CD00AC102D140F0F9D030F021F404
:1007B0005F3F19F0EBC0511134C1EEC00FD198F377
:1007C0009923C9F35523B1F3951B550BBB27AA27D2
:1007D00062177307840738F09F5F5F4F220F331F44
:1007E000441FAA1FA9F333D00E2E3AF0E0E830D010
:1007F00091505040E695001CCAF729D0FE2F27D013
:10080000660F771F881FBB1F261737074807AB07E0
:10081000B0E809F0BB0B802DBF01FF2793585F4F55
:100820002AF09E3F510568F0B1C0FBC05F3FECF37A
:10083000983EDCF3869577956795B795F7959F5F1A
:10084000C9F7880F911D9695879597F90895E1E06E
:10085000660F771F881FBB1F621773078407BA07CD
:1008600020F0621B730B840BBA0BEE1F88F7E09528
:100870000895BCD088F09F5790F0B92F9927B751B1
:10088000A0F0D1F0660F771F881F991F1AF0BA9554
:10089000C9F712C0B13081F0C3D0B1E00895C0C033
:1008A000672F782F8827B85F39F0B93FCCF386954A
:1008B00077956795B395D9F73EF4909580957095A7
:1008C00061957F4F8F4F9F4F0895E89409C097FB24
:1008D0003EF490958095709561957F4F8F4F9F4F17
:1008E0009923A9F0F92F96E9BB279395F69587955B
:1008F00077956795B795F111F8CFFAF4BB0F11F41E
:1009000060FF1BC06F5F7F4F8F4F9F4F16C08823C4
:1009100011F096E911C0772321F09EE8872F762FFA
:1009200005C0662371F096E8862F70E060E02AF03B
:100930009A95660F771F881FDAF7880F9695879527
:1009400097F90895990F0008550FAA0BE0E8FEEFFC
:1009500016161706E807F907C0F012161306E40783
:10096000F50798F0621B730B840B950B39F40A267C
:1009700061F0232B242B252B21F408950A2609F45A
:10098000A140A6958FEF811D811D089597F99F675E
:1009900080E870E060E008959FEF80EC0895002407
:1009A0000A941616170618060906089500240A94D4
:1009B00012161306140605060895092E0394000C5A
:1009C00011F4882352F0BB0F40F4BF2B11F460FFE9
:1009D00004C06F5F7F4F8F4F9F4F089557FD905812
:1009E000440F551F59F05F3F71F04795880F97FBF3
:1009F000991F61F09F3F79F08795089512161306AD
:100A00001406551FF2CF4695F1DF08C016161706DB
:100A10001806991FF1CF8695710561050894089510
:100A2000E894BB2766277727CB0197F908958ADFDB
:100A300008F48FEF08950BD0C0CFB1DF28F0B6DFF8
:100A400018F0952309F0A2CFA7CF1124EACFC6DF73
:100A5000A0F3959FD1F3950F50E0551F629FF001D1
:100A6000729FBB27F00DB11D639FAA27F00DB11D2A
:100A7000AA1F649F6627B00DA11D661F829F2227B3
:100A8000B00DA11D621F739FB00DA11D621F839F3A
:100A9000A00D611D221F749F3327A00D611D231F10
:100AA000849F600D211D822F762F6A2F11249F575E
:100AB00050408AF0E1F088234AF0EE0FFF1FBB1F81
:100AC000661F771F881F91505040A9F79E3F510520
:100AD00070F05CCFA6CF5F3FECF3983EDCF38695D9
:100AE00077956795B795F795E7959F5FC1F7FE2BCB
:100AF000880F911D9695879597F90895EE0FFF1F22
:100B0000881F8BBF0790F691E02D1994A29FB0012A
:100B1000B39FC001A39F700D811D1124911DB29F31
:0E0B2000700D811D1124911D0895F894FFCFD2
:100B2E000000803F5AEBEB4461746F20496E747283
:100B3E006F64756369646F004461746F20457272EF
:100B4E006F6E656F00496E74726F3A204461746FF8
:020B5E00000095
:00000001FF
