:020000020000FC
:047800000C942200C2
:040000000C9422003A
:100040000C943A000FE004B9002707B90AB90FEF82
:100050000DBF08E00EBF002704BD03E005BD01E0B1
:1000600005BB01E000936E00789411270EEB06BDEE
:100070000C9464000EEB06BD112703B105FF0C9430
:100080004A0025B12F70203041F004FF0C9450003D
:100090000C94580022270C94600021E00C9460001E
:1000A0002695203011F00C94600028E00C9460003C
:1000B000220F203111F00C94600021E00C946000BC
:0C00C00025B900E005BB18950C94640005
:00000001FF
