:1000000071C0000086C0000084C0000082C00000F3
:1000100080C000007EC000007CC000007AC00000EC
:1000200078C0000076C0000074C00000E2C000008C
:1000300070C000006EC000006CC000006AC000000C
:1000400068C0000066C0000064C0000062C000001C
:1000500060C000005EC000005CC000005AC000002C
:1000600058C0000056C0000054C0000052C000003C
:1000700050C000004EC000004CC000004AC000004C
:1000800048C0000046C0000044C0000042C000005C
:1000900040C000003EC000003CC000003AC000006C
:1000A00038C0000036C0000034C0000032C000007C
:1000B00030C000002EC000002CC000002AC000008C
:1000C00028C0000026C0000024C0000022C000009C
:1000D00020C000001EC000001CC000001AC00000AC
:1000E00018C0000011241FBECFEFD1E2DEBFCDBF8C
:1000F00000E00CBF12E0A0E0B2E0E2EAF2E000E0D3
:100100000BBF02C007900D92A230B107D9F7BDD046
:10011000C6C076CF80EF809307018FE080930801FF
:1001200015BE94E09093680080936D0008959091BF
:1001300006019F709E3069F09D3031F09B3031F0A8
:10014000973031F4282F05C0242F03C0262F01C07B
:100150002BEE822F08958FE0809308018091060195
:100160008F708F3008F041C08FE7809308018FE9CE
:100170009FE00197F1F700C0000021E443E362E350
:1001800081E3D5DF8B3E71F58FEB809308018FE91A
:100190009FE00197F1F700C0000022E446E365E329
:1001A00084E3C5DF8B3EF1F48FED809308018FE986
:1001B0009FE00197F1F700C0000023E449E368E302
:1001C00087E3B5DF8B3E71F48FEE809308018FE9F2
:1001D0009FE00197F1F700C0000024E443E260E3F0
:1001E0008AE2A5DF8093000208958BEE80930002DF
:1001F00008951F920F920FB60F9211240BB60F9213
:100200002F933F934F935F936F937F938F939F931E
:10021000AF93BF93EF93FF93F8949DDF8B3E09F16B
:1002200080930102823391F028F4803349F08133C6
:1002300051F017C0843381F060F0853381F011C034
:1002400080E382B90EC081E382B90BC082E382B938
:1002500008C083E382B905C084E382B902C085E3A4
:1002600082B97894FF91EF91BF91AF919F918F9157
:100270007F916F915F914F913F912F910F900BBEA6
:100280000F900FBE0F901F901895F8948FEF81B9C3
:1002900084B940DF78948091000285B9FCCFF8944E
:0202A000FFCF8E
:0202A200EBEB84
:00000001FF
