:020000020000FC
:1000000020E02093070121B92FEF20BB2FEF209391
:10001000080122B9222720910601022F0F70122F0A
:1000200012951F7020B12370203031F0213079F00B
:100030002230C9F0233011F1312F300F2FB72F7B31
:1000400021FD2064220F207E232B0C944900412F98
:10005000401B4F712FB72F7B21FD2064220F207E84
:10006000242B0C944900512F50232FB72F7B21FDB7
:100070002064220F207E252B0C944900612F602BD9
:100080002FB72F7B21FD2064220F207E262B0C947E
:08009000490021BB0C940B0098
:00000001FF
