:1000000071C0000081C000007FC000007DC0000002
:100010007BC0000079C0000077C0000075C0000000
:1000200073C0000071C000006FC000006DC0000010
:100030006BC0000069C0000067C0000065C0000020
:1000400063C0000061C000005FC000005DC0000030
:100050005BC00000ABC0000057C0000055C00000EE
:1000600053C0000051C000004FC000004DC0000050
:100070004BC00000A5C0000047C0000045C0000004
:1000800043C0000041C000003FC000003DC0000070
:100090003BC0000039C0000037C0000035C0000080
:1000A00033C0000031C000002FC000002DC0000090
:1000B0002BC0000029C0000027C0000025C00000A0
:1000C00023C0000021C000001FC000001DC00000B0
:1000D0001BC0000019C0000017C0000015C00000C0
:1000E00013C0000011241FBECFEFD1E2DEBFCDBF91
:1000F00000E00CBF22E0A0E0B2E001C01D92AA31F6
:10010000B207E1F78DD0B4C07BCFE2E0F2E011821C
:100110001282883E23E0920730F0885E934021E30C
:100120002093020203C020E320930202843691054B
:1001300060F021E001C0232F8456910931E0320F95
:1001400084369105C0F720930302E2E0F2E02181BA
:10015000205D21838A30910540F020E00A972F5FCF
:100160008A309105D8F720930402E2E0F2E0928110
:10017000905D9283805D83830895E0ECF0E0908150
:1001800095FFFDCF8093C6000895CF93DF93C2E023
:10019000D2E08881F2DF8981F0DF8A81EEDF8B8116
:1001A000ECDF8AE0EADFDF91CF9108951F920F9292
:1001B0000FB60F9211240F900FBE0F901F9018953D
:1001C0001F920F920FB60F9211240BB60F922F931E
:1001D0003F934F935F936F937F938F939F93AF93CF
:1001E000BF93EF93FF938091780090917900909363
:1001F00001028093000289DFC8DFFF91EF91BF9178
:10020000AF919F918F917F916F915F914F913F91AE
:100210002F910F900BBE0F900FBE0F901F9018954F
:1002200082E08DB984BD93E095BD80936E0016BCCD
:1002300089EF87BD18BC80E480937C008CEA8093B2
:100240007A0090937B0081E080937E0010927D0085
:100250001092C00088E08093C10086E08093C200C5
:1002600087E690E09093C5008093C4007894FFCF18
:04027000F894FFCF30
:00000001FF
