:020000020000FC
:047800000C942C00B8
:040000000C942C0030
:100054000C9445000CE00AB90CE007B90FEF04B9A1
:100064000FEF0DBF08E00EBF01E400937C0007E929
:1000740000937A0000E000937B000CE300937E0081
:1000840078940C9447000000189507E800937A00D0
:10009400489B0C944F000C94540000E400937C00A3
:1000A4000C94570001E400937C0007EC00937A0061
:1000B40000917A0004FF0C945A000E94720000918F
:1000C400780005B95A9A0E9472005A9800917900F2
:1000D400037005B95B9A0E9472005B980C94470008
:0C00E40076EA7A95F1F70000000008951C
:00000001FF
