:100000000C9434000C9446000C9446000C9446006A
:100010000C9446000C9446000C9446000C94460048
:100020000C9446000C9446000C9446000C94460038
:100030000C9446000C9446000C9446000C94460028
:100040000C9446000C9446000C9446000C94460018
:100050000C9446000C9446000C9446000C94460008
:100060000C9406010C94460011241FBECFEFD8E07B
:10007000DEBFCDBF21E0A0E0B1E001C01D92A730FE
:10008000B207E1F70E946C010C9471010C9400001E
:10009000809105018093BB000895282F207F30E0D8
:1000A000359527953595279525B9922F926095B965
:1000B000E9EFF0E03197F1F700C0000025B9E9EF72
:1000C000F0E03197F1F700C0000095B19C7395B94D
:1000D000F0E18F9FC00111249927959587959595FB
:1000E000879585B9982F926095B9E9EFF0E031973F
:1000F000F1F700C0000085B989EF90E00197F1F7B2
:1001000000C0000008958FE384B985B115B883E37A
:100110000E944D008FE097E20197F1F700C00000C8
:1001200082E30E944D008FE097E20197F1F700C053
:10013000000088E20E944D0083EC99E00197F1F7FE
:1001400000C000008CE00E944D0083EC99E0019714
:10015000F1F700C0000081E00E944D0083EC99E0BF
:100160000197F1F700C0000086E00E944D0083EC8B
:1001700099E00197F1F700C0000008959FE394B95A
:1001800015B8282F207F30E0359527953595279590
:10019000922F916095B9236025B9E9EFF0E031978E
:1001A000F1F700C0000095B9E9EFF0E03197F1F701
:1001B00000C00000F0E18F9FC001112499279595A0
:1001C000879595958795982F916095B9836085B9A6
:1001D000E9EFF0E03197F1F700C0000095B989EF41
:1001E00090E00197F1F700C00000089580930501A9
:1001F000809105010E94BE000895F894880F8093B5
:10020000BA0085EC8093BC00789408951F920F92F9
:100210000FB60F9211242F933F934F935F936F93D9
:100220007F938F939F93AF93BF93EF93FF938091AF
:10023000B900887F803849F018F4882319F128C064
:10024000883A71F0883BA9F023C08091BB00E0910F
:100250000201F0910301099585EC8093BC001BC05D
:10026000E0910001F0910101099585EC8093BC00BB
:1002700012C0E0910001F0910101099585EC809395
:10028000BC0009C0ECEBF0E0108285EC808303C079
:1002900085EC8093BC00FF91EF91BF91AF919F914E
:1002A0008F917F916F915F914F913F912F910F901F
:1002B0000FBE0F901F90189586EF90E0909303016A
:1002C0008093020188E490E0909301018093000103
:1002D00080E10E94FD0008950E945C010E9483005D
:0602E000FFCFF894FFCFF0
:00000001FF
