S01B0000554152545F496E74657272757063696F6E65732E7372656394
S113000071C0000081C000007FC000007DC00000FE
S11300107BC0000079C0000077C0000075C00000FC
S113002073C0000071C000006FC000006DC000000C
S11300306BC0000069C0000067C0000065C000001C
S113004063C0000061C000005FC000005DC000002C
S11300505BC00000D9C0000057C0000055C00000BC
S113006053C0000051C000004FC00000D7C00000C2
S11300704BC0000018C1000047C0000045C000008C
S113008043C0000041C000003FC000003DC000006C
S11300903BC0000039C0000037C0000035C000007C
S11300A033C0000031C000002FC000002DC000008C
S11300B02BC0000029C0000027C0000025C000009C
S11300C023C0000021C000001FC000001DC00000AC
S11300D01BC0000019C0000017C0000015C00000BC
S11300E013C0000011241FBECFEFD1E2DEBFCDBF8D
S11300F000E00CBF22E0A0E0B2E001C01D92A13DEF
S1130100B207E1F700D12AC17BCF90910002992375
S1130110A1F0A92FB0E0A75FBD4FE9E0F2E02FEF17
S1130120290F30E0265F3D4F8D918193E217F3074D
S1130130D9F790930402109200020895CF93C82F28
S1130140E4DF80910102811108C0C093C600809150
S113015001028F5F809301020CC0883C48F4E82FB1
S1130160F0E0E85FFD4FC0838F5F8093010201C020
S1130170FFCFCF910895E5E0F2E011821282883E2C
S113018023E0920730F0885E934021E32093050238
S113019003C020E3209305028436910560F021E03A
S11301A001C0232F8456910931E0320F8436910522
S11301B0C0F720930602E5E0F2E02181205D21836F
S11301C08A30910540F020E00A972F5F8A3091052C
S11301D0D8F720930702E5E0F2E09281905D9283E4
S11301E0805D83830895CF93DF93C5E0D2E0888157
S11301F0A5DF8981A3DF8A81A1DF8B819FDF8AE06C
S11302009DDFDF91CF9108951F920F920FB60F9249
S113021011240F900FBE0F901F9018951F920F92EC
S11302200FB60F9211240BB60F922F933F934F9357
S11302305F936F937F938F939F93AF93BF93EF934A
S1130240FF9380910102823098F0E0910002F0E087
S1130250E75FFD4F80818093C600809100028F5F2D
S1130260809300028091010281508093010208C0B2
S1130270813019F41092010203C0811101C045DFDD
S1130280FF91EF91BF91AF919F918F917F916F916A
S11302905F914F913F912F910F900BBE0F900FBE26
S11302A00F901F9018951F920F920FB60F92112462
S11302B00BB60F922F933F934F935F936F937F935C
S11302C08F939F93AF93BF93EF93FF9380917800A5
S11302D09091790090930302809302024CDF83DFB4
S11302E0FF91EF91BF91AF919F918F917F916F910A
S11302F05F914F913F912F910F900BBE0F900FBEC6
S11303000F901F90189580E884B982E08DB984BD60
S113031095E095BD80936E0016BC89EF87BD18BC2F
S113032080E480937C008CEA80937A0083E080935D
S11303307B0081E080937E0010927D001092C000CB
S113034088E48093C10086E08093C20087E690E051
S11303509093C5008093C4007894FFCFF894FFCFA6
S9030000FC
