:1000000071C0000081C000007FC000007DC0000002
:100010007BC0000079C0000077C0000075C0000000
:1000200073C0000071C000006FC000006DC0000010
:100030006BC0000069C0000067C0000065C0000020
:1000400063C0000061C000005FC000005DC0000030
:100050005BC0000059C0000057C0000055C0000040
:1000600053C0000051C000004FC000004DC0000050
:100070004BC0000049C0000047C0000045C0000060
:1000800043C0000041C000003FC000003DC0000070
:100090003BC0000039C0000037C0000035C0000080
:1000A00033C0000031C000002FC000002DC0000090
:1000B0002BC0000029C0000027C0000025C00000A0
:1000C00023C0000021C000001FC000001DC00000B0
:1000D0001BC0000019C0000017C0000015C00000C0
:1000E00013C0000011241FBECFEFD1E2DEBFCDBF91
:1000F00000E00CBF22E0A0E0B2E001C01D92A230FF
:10010000B207E1F7C6D0DFC07BCF88E48093B800A8
:100110001092B9001092BC000895ECEBF0E0108250
:100120009081946A908390819923ECF79091B90023
:10013000987F983039F080910002816080930002AE
:1001400081E00895880F8093BB0084E88093BC0011
:10015000ECEBF0E080818823ECF78091B900887F98
:10016000883139F08091000282608093000281E042
:10017000089580E008958093BB0084E88093BC00DC
:10018000ECEBF0E080818823ECF78091B900887F68
:10019000883239F08091000284608093000281E00F
:1001A000089580E00895CF93DF93D62FC42FB5DF55
:1001B00081110DC08D2FDFDF8C2FDDDF811109C094
:1001C00084E98093BC0084E68150F1F703C081E0AC
:1001D00001C081E0DF91CF910895ECEBF0E0108257
:1001E0009081946A908390819923ECF79091B90063
:1001F000987F9830A1F4880F81608093BB0084ECD5
:100200008093BC00ECEBF0E080818823ECF79091C8
:10021000B900987F81E0903419F480E0089581E07E
:100220000895ECEBF0E094E8A9EBB0E028E09083CF
:1002300080818823ECF78C91887F883519F0209392
:100240000002F5CF8091BB000895CF93DF93D62FA6
:1002500064DFC82F811106C08D2F8DDF84E9809364
:10026000BC0001C0C1E08C2FDF91CF910895CF93E6
:10027000C82FEBDF8C2FB1DF811108C0D2DF94E9EA
:100280009093BC0094E69150F1F701C081E0CF91CA
:1002900008951AB883E08BB98FEF81B936DF47E054
:1002A00062E088E680DF8093010260E088E6DFDFBD
:1002B00082B92FEF81EE94E0215080409040E1F729
:0A02C00000C00000ECCFF894FFCF5F
:00000001FF
