S01B0000496D70657269616C5F4D617263685F333238702E7372656320
S11300000C9434000C9451000C9451000C94510045
S11300100C9451000C9451000C9451000C94510018
S11300200C9451000C9451000C9451000C94510008
S11300300C9451000C9451000C9451000C945100F8
S11300400C9453000C9451000C9451000C945100E6
S11300500C9451000C9451000C9451000C945100D8
S11300600C9451000C94510011241FBECFEFD8E022
S1130070DEBFCDBF13E0A0E0B1E0E0ECF1E002C0F0
S113008005900D92A031B107D9F723E0A0E1B3E0C8
S113009001C01D92A431B207E1F70E94BA000C948A
S11300A0DE000C9400001F920F920FB60F921124E1
S11300B02F933F934F935F938F939F93EF93FF936C
S11300C085E086BD20911003309111032F5F3F4FCF
S11300D03093110320931003809112039091130322
S11300E0FC01EE0FFF1FE050FF4F4081518142178A
S11300F0530798F5880F991FFC01E85FFD4F808135
S11301009181019621F480E88093800003C080E40B
S113011080938000E0911203F0911303EE0FFF1F10
S1130120E85FFD4F808191819093890080938800DE
S113013010921103109210038091120390911303F3
S113014001968538910528F4909313038093120344
S113015004C01092130310921203FF91EF919F9128
S11301608F915F914F913F912F910F900FBE0F9000
S11301701F90189582E084B983E084BD85BD81E039
S113018080936E0085E086BD80E4809380008AE0E1
S11301908093810010926F00109285001092840069
S11301A010928700109286001092890010928800A5
S11301B010928B0010928A007894FFCFF894FFCFAE
S11301C0F4013F00F4013F00F4013F00FA003F0056
S11301D07D003F00F4013F00FA003F007D003F0036
S11301E0E8033F00F4013F00F4013F00F4013F0045
S11301F0FA003F007D003F00F4013F00FA003F0099
S11302007D003F00E8033F00F4013F00FA003F0097
S11302107D003F00F4013F00FA003F007D003F00F5
S11302207D003F007D003F00FA003F00FA003F00E0
S1130230FA003F00F4013F00FA003F007D003F0058
S11302407D003F007D003F00FA003F00FA003F00C0
S1130250FA003F00F4013F00FA003F007D003F0038
S1130260F4013F00FA003F007D003F00E8033F0037
S1130270F4013F00FA003F007D003F00F4013F001D
S1130280FA003F007D003F007D003F007D003F00FD
S1130290FA003F00FA003F00FA003F00F4013F007B
S11302A0FA003F007D003F007D003F007D003F00DD
S11302B0FA003F00FA003F00FA003F00F4013F005B
S11302C0FA003F007D003F00672FFFFF672FFFFF0D
S11302D0672FFFFFB93BFFFFDC27FFFF672FFFFFFF
S11302E0B93BFFFFDC27FFFF672FFFFFA31FFFFFC3
S11302F0A31FFFFFA31FFFFFDD1DFFFFDC27FFFF81
S11303003832FFFFB93BFFFFDC27FFFF672FFFFFFA
S1130310B317FFFF672FFFFF672FFFFFB317FFFF21
S11303201C19FFFF9A1AFFFF9A1AFFFFB317FFFF6A
S11303309A1AFFFFFFFFFFFFBE2CFFFF8521FFFF7F
S11303408323FFFF9F25FFFFDC27FFFFBE2CFFFF5A
S1130350DC27FFFFFFFFFFFFB93BFFFF3832FFFF42
S1130360B93BFFFF672FFFFFDC27FFFF672FFFFF6E
S1130370DC27FFFFA31FFFFFB317FFFF672FFFFF5C
S1130380672FFFFFB317FFFF1C19FFFF9A1AFFFF28
S11303909A1AFFFFB317FFFF9A1AFFFFFFFFFFFF31
S11303A0BE2CFFFF8521FFFF8323FFFF9F25FFFF57
S11303B0DC27FFFFBE2CFFFFDC27FFFFFFFFFFFF53
S11303C0B93BFFFF3832FFFFB93BFFFF672FFFFF49
S9030000FC
