S01300005072616374696361335F322E7372656326
S11300000C942A000C943C000C943C000C943C008E
S11300100C943C000C943C000C943C000C943C006C
S11300200C943C000C943C000C943C000C943C005C
S11300300C943C000C943C000C943C000C943C004C
S11300400C943C000C943C000C943C000C943C003C
S11300500C943C0011241FBECFE5D4E0DEBFCDBF1D
S113006020E0A0E6B0E001C01D92A136B207E1F79E
S11300700E94B9000C94D7000C94000080EF81BB5F
S11300808FEF82BB089590B39F709E3069F09D30CE
S113009031F09B3031F0973031F4282F05C0242FF4
S11300A003C0262F01C02BEE822F08958FE082BB60
S11300B080B38F708F3008F03FC08FE782BB89EF29
S11300C090E00197F1F700C0000021E443E362E30C
S11300D081E30E9443008B3E81F58FEB82BB89EF65
S11300E090E00197F1F700C0000022E446E365E3E5
S11300F084E30E9443008B3E01F58FED82BB89EFC0
S113010090E00197F1F700C0000023E449E368E3BD
S113011087E30E9443008B3E81F48FEE82BB89EF1C
S113012090E00197F1F700C0000024E443E260E3AB
S11301308AE20E94430008958BEE0895E199FECF70
S11301409FBB8EBB6DBBE29AE19A0895E199FECF05
S11301509FBB8EBBE09A8DB3089586B390E00E9456
S1130160A60085BB089569B386B390E00E949E0003
S11301700895F8941ABA17BA8FEF84BB0E943E0010
S113018078940E945600809360008B3E49F081333E
S113019019F40E94AD0004C0823311F40E94B3002C
S11301A089EF90E00197F1F700C00000EACFF894DE
S10501B0FFCF7B
S9030000FC
