S00F0000454550524F4D362E7372656317
S11300000C942A000C943C000C943C000C943C008E
S11300100C943C000C943C000C943C000C943C006C
S11300200C943C000C943C000C943C000C943C005C
S11300300C943C000C943C000C943C000C943C004C
S11300400C943C000C943C000C943C000C943C003C
S11300500C943C0011241FBECFE5D4E0DEBFCDBF1D
S113006020E0A0E6B0E001C01D92A136B207E1F79E
S11300700E948C000C94B6000C94000089B390E0AC
S11300800E94A100809360002FE38DE093E0215053
S113009080409040E1F700C000008091600088BB80
S11300A02FE38DE093E0215080409040E1F700C0C1
S11300B00000089560B36093600089B390E00E94EB
S11300C0A9002FE38DE093E0215080409040E1F7B8
S11300D000C000008DB388BB2FE38DE093E0215076
S11300E080409040E1F700C000008EB39FB388BB0E
S11300F02FE38DE093E0215080409040E1F700C071
S1130100000018BA2FE38DE093E021508040904026
S1130110E1F700C0000008951ABA8FEF8BBB14BA40
S113012085BB87BB11BA82BB83B38370813019F05E
S1130130823021F0F9CF0E943E00F6CF0E945A008F
S1130140F3CFE199FECF9FBB8EBBE09A99278DB385
S11301500895262FE199FECF9FBB8EBB2DBB0FB612
S1130160F894E29AE19A0FBE01960895F894FFCFAD
S9030000FC
