:020000020000FC
:047800000C940200E2
:100000000C940200002707B90FEF0AB90FEF0DBFDC
:1000100008E00EBF0CE204B901E50CBD01E3102FAE
:100020000E941D000395102F0E941D000E942500B4
:1000300003950E942D000C940F000F931EBD0DB56B
:1000400007FFFDCF00000F91089515B1146015B999
:10005000000015B11B7F15B908953F931F930F93AF
:1000600005E119E51A95F1F70A95D9F703E00A9524
:10007000F1F700003A95A1F70F911F913F91089574
:00000001FF
