:1000000071C000008EC000008CC000008AC00000DB
:1000100088C0000086C0000084C0000082C00000CC
:1000200080C000007EC000007CC000007AC00000DC
:1000300078C0000076C0000074C0000072C00000EC
:1000400070C000006EC000006CC000006AC00000FC
:1000500068C0000066C0000064C0000062C000000C
:1000600060C000005EC000005CC000005AC000001C
:1000700058C0000056C0000054C0000052C000002C
:1000800050C000004EC000004CC000004AC000003C
:1000900048C0000046C0000044C0000042C000004C
:1000A00040C000003EC000003CC000003AC000005C
:1000B00038C0000036C0000034C0000032C000006C
:1000C00030C000002EC000002CC000002AC000007C
:1000D00028C0000026C0000024C0000022C000008C
:1000E00020C0000011241FBECFEFD1E2DEBFCDBF84
:1000F00000E00CBF12E0A0E0B2E0ECE7F4E000E0CA
:100100000BBF02C007900D92AC3AB107D9F722E0BD
:10011000ACEAB2E001C01D92A23BB207E1F70ED1FA
:10012000ABC16ECF899A8FE99FE00197F1F700C0CC
:10013000000089988FE99FE00197F1F700C0000067
:100140000895899A8FE891E00197F1F700C00000C7
:1001500089988FE891E00197F1F700C000000895B9
:1001600080FF8A9881FF8B9882FF8C9883FF8D98FF
:1001700080FD8A9A81FD8B9A82FD8C9A83FD8D9AEF
:100180000895809A819A829A839A849A859A889807
:1001900089988A988B988C988D982FEF89EF90E0AA
:1001A000215080409040E1F700C00000889883E033
:1001B000D7DFB8DF8FEB9DE50197F1F700C00000B6
:1001C00083E0CEDFAFDF8FE99FE00197F1F700C05A
:1001D000000083E0C5DFA6DF8FE99FE00197F1F71C
:1001E00000C0000082E0BCDF9DDF8FE99FE0019747
:1001F000F1F700C0000082E0B3DF94DF8FE99FE0F9
:100200000197F1F700C000008CE0AADF8BDF8FE9D7
:100210009FE00197F1F700C0000080E0A1DF82DFDE
:100220008FE99FE00197F1F700C000008CE098DFB4
:1002300079DF8FE99FE00197F1F700C0000080E0CF
:100240008FDF70DF8FE99FE00197F1F700C00000BA
:1002500081E086DF67DF8FE99FE00197F1F700C05B
:10026000000080E07DDF5EDF8FE99FE00197F1F71E
:1002700000C0000086E074DF55DF8FE99FE0019742
:10028000F1F700C000008DE992E09093AF028093F7
:10029000AE020895CF93C82F889882958F7060DF43
:1002A00041DF8C2F5DDF3EDFCF910895623031F06A
:1002B000633031F0613029F4805C03C08C5E01C092
:1002C0008C5A8068E7CF0895CF93C82F889A82957B
:1002D0008F7046DF36DF8C2F43DF33DFCF910895F9
:1002E000F3DF80E090E008950F931F93CF93DF93A7
:1002F00060E080E0DBDFCDE8D2E00DE912E089913B
:10030000E3DFC017D107D9F7DF91CF911F910F918C
:1003100008950F931F93CF93DF9361E080E0C6DFD2
:10032000CDE7D2E00DE812E08991CEDFC017D1070A
:10033000D9F7DF91CF911F910F910895CF93DF935C
:1003400000D01F92CDB7DEB71CDF09E412E00F2EFC
:10035000F7E0CF2EF2E0DF2EF02D0F2EF2E52F2E5C
:10036000F2E03F2EF02D0F2EFDE84F2EF2E05F2E33
:10037000F02D0F2EFDE76F2EF2E07F2EF02D0F2EC9
:10038000FDE9EF2EF2E0FF2EF02D22C0AB81BC8103
:100390004D91BC83AB834193DC014D91CD01D901DB
:1003A0004D939D01EE15FF0589F79EDFB2DFBFEF8C
:1003B00029E648E1B15020404040E1F700C000008C
:1003C0000F5F1F4F5FEFC51AD50A0215130571F0B5
:1003D000B42CA52C962C872CFA82E9822DE732E0EA
:1003E000C601EDE8F2E01C830B83D0CF62E080E031
:1003F0005DDF63E080E05ADF0F2EFFE0EF2EF12C8F
:10040000F02D0FE010E002C00FE010E082E3E816EC
:10041000F1042CF00F2EFFE0EF2EF12CF02D9801BF
:100420002E5B3D4FC70180509E4F692D782DEB2DDF
:10043000FA2DD9014D919D014193DC014D91CD01E2
:10044000DB014D93BD0149815A81E417F50789F716
:100450004BDF5FDF5FEF89E698E1515080409040CD
:10046000E1F700C000000F5F1F4FAFEFEA1AFA0A72
:0C0470000B3211054CF6CACFF894FFCFF8
:10047C00202020202020202020202020202020424E
:10048C006F6C6574613A3230313336343032333319
:10049C0020426F6C6574613A32303133363430320D
:1004AC00333320426F6C6574613A323031333634F9
:1004BC00303220202020202020202020202020200E
:1004CC00204564756172646F2041647269616E20AD
:1004DC0045737472616461204D6179612045647566
:1004EC006172646F2041647269616E20004C7569A1
:1004FC0073204665726E616E646F000000486F6C0D
:10050C00610000000000000000000000000000007E
:0C051C0002000000007001000000000060
:00000001FF
