S01300005072616374696361355F312E7372656325
S11300000C942A000C9434000C9434000C943400A6
S11300100C9436000C9434000C9434000C9434008A
S11300200C9434000C9434000C9434000C9434007C
S11300300C9434000C9434000C9434000C9434006C
S11300400C9434000C9434000C9434000C9434005C
S11300500C94340011241FBECFE5D4E0DEBFCDBF25
S11300600E944E000C945C000C9400001F920F92AE
S11300700FB60F9211248F938CE084BDC79B05C0EB
S113008088B3880F816088BB03C088B3880F88BB9E
S11300908F910F900FBE0F901F901895F8948FEFCB
S11300A087BB81E188BB87E085BD80E489BF8CE0A4
S10F00B084BD13BC7894FFCFF894FFCFFC
S9030000FC
