:100000000C942A000C9434000C9434000C943400AA
:100010000C9447000C9434000C9434000C9434007D
:100020000C9434000C9436000C9434000C9434007E
:100030000C9434000C9434000C9434000C94340070
:100040000C9434000C9434000C9434000C94340060
:100050000C94340011241FBECFE5D4E0DEBFCDBF29
:100060000E9458000C946D000C9400001F920F9297
:100070000FB60F9211248F9386E882BF8BB38F5FE8
:100080008BBB8F910F900FBE0F901F9018951F92F2
:100090000F920FB60F9211248F938FEA84BD88B30D
:1000A000815088BB8F910F900FBE0F901F901895B5
:1000B000F8948FEF8ABB87BB81E08BBB88BB85E060
:1000C00083BF86E882BF1CBE87E085BD8FEA84BD02
:0E00D00013BC81E489BF7894FFCFF894FFCF72
:00000001FF
