S0140000496E74657272757063696F6E2E737265630E
S11300000C942A000C9436000C9451000C94340087
S11300100C9434000C9434000C9434000C9434008C
S11300200C9434000C9434000C9434000C9434007C
S11300300C9434000C9434000C9434000C9434006C
S11300400C9434000C9434000C9434000C9434005C
S11300500C94340011241FBECFE5D4E0DEBFCDBF25
S11300600E946C000C947C000C9400001F920F9270
S11300700FB60F9211242F938F939F938FE085BB1C
S11300802FEF89E698E1215080409040E1F700C0CD
S113009000009F918F912F910F900FBE0F901F9092
S11300A018951F920F920FB60F9211242F938F93CE
S11300B09F9385E585BB2FEF89E698E12150804029
S11300C09040E1F700C000009F918F912F910F9015
S11300D00FBE0F901F9018958FEF84BB11BA82B397
S11300E08C6082BBF89485B7826085BF80EC8BBF3F
S10F00F078948FEF85BBFECFF894FFCF0F
S9030000FC
